:020000040800F2
:10000000A80C0020A9010008873000082B2E00084A
:1000100085300008D9140008BD3800080000000031
:100020000000000000000000000000000F34000885
:10003000D7160008000000000D3400081134000835
:10004000C3010008C3010008C3010008C301000880
:10005000C3010008C3010008C3010008C301000870
:10006000C3010008C3010008C3010008C301000860
:10007000C3010008C3010008C3010008A11600085D
:10008000C3010008C3010008C3010008C301000840
:10009000C3010008C3010008C3010008C301000830
:1000A000C3010008C3010008C3010008C301000820
:1000B000C3010008C3010008C3010008C301000810
:1000C000C3010008C3010008C3010008C301000800
:1000D000C301000875380008C3010008C301000807
:1000E000D9160008C3010008C301000800F002F897
:1000F00000F04AF80AA090E8000C82448344AAF178
:100100000107DA4501D100F03FF8AFF2090EBAE875
:100110000F0013F0010F18BFFB1A43F0010318473B
:100120004C6500006C650000103A24BF78C878C1A7
:10013000FAD8520724BF30C830C144BF04680C60ED
:10014000704700000023002400250026103A28BF35
:1001500078C1FBD8520728BF30C148BF0B60704739
:10016000662904F08F82642900F07A8000207047AD
:100170001FB500F01DFC04000020002103F0A6FEC6
:10018000E0601FBD10B510BD00F00EFD1146FFF779
:10019000EFFF03F0D3FB00F02CFD03B4FFF7F2FFF9
:1001A00003BC00F06DFD0000094880470948004786
:1001B000FEE7FEE7FEE7FEE7FEE7FEE7FEE7FEE717
:1001C000FEE7FEE704480549054A064B7047000074
:1001D0008D340008ED000008A8060020A80C0020BF
:1001E000A8080020A80800200FB41CB5074B06AAD9
:1001F0007B4469460090059800F0C1FB00206946E9
:1002000000F0D0FB1CBC5DF814FB0000B10700003F
:1002100070B5044685690068C10601D5302600E046
:100220002026C00707D070BDD4E901213046904791
:10023000206A401C20626D1EF6D570BD70B5044664
:1002400085690078C00707D170BDD4E9012120205D
:100250009047206A401C20626D1EF6D570BD0000DC
:100260002DE9F0410646002410687529314616A58F
:1002700010D0AFF30080002802DA404213A507E057
:1002800031688A0701D512A502E0490704D511A5F6
:10029000012401E0AFF3008000210A2206F12407C7
:1002A00009E0B0FBF2FCB0FBF2F302FB1C003030C3
:1002B00078541846491C0028F3D123462A46304674
:1002C000BDE8F04100F0F0B8000000002D00000093
:1002D0002B000000200000002DE9F05F8946044655
:1002E0004FF0000ADFF824B1FB44C0F820A02046FC
:1002F000E168884700287DD0252806D0D4E901216F
:100300009047206A401C2062F1E700255F462046A6
:10031000E16888472028064607DB312E05D2B81948
:1003200010F8200C08B10543F1E7A80701D525F026
:100330000405C4F81CA00027C4F818A02A2E09D070
:10034000304603F0E0FA38B304EB8708303EC8F8D3
:10035000186019E059F8041B204604EB87029161EC
:10036000E1688847012F064618D1E069002820DAA5
:1003700025F020051DE0D8F8180000EB800006EB02
:1003800040003038C8F818002046E1688847064623
:1003900003F0B9FA0028EED1012F0AD02E2E08D191
:1003A0002046E16888477F1C0646022F45F020055D
:1003B000C4DBA069002803DA404245F00105A061D2
:1003C000E80701D025F01005A6B1A6F141001928D3
:1003D00002D8203645F400654A463146204625605D
:1003E0004D46FFF7BDFE60B1012807D0ED1D25F099
:1003F000070000E007E000F1080978E705F10409CB
:1004000075E730467AE7206ABDE8F09FD8620000C1
:100410004FF000020429C0F0128010F0030C00F02D
:100420001B80CCF1040CBCF1020F18BF00F8012BAB
:10043000A8BF20F8022BA1EB0C0100F00DB85FEA79
:10044000C17C24BF00F8012B00F8012B48BF00F845
:10045000012B70474FF0000200B5134694469646B4
:10046000203922BFA0E80C50A0E80C50B1F12001C7
:10047000BFF4F7AF090728BFA0E80C5048BF0CC075
:100480005DF804EB890028BF40F8042B08BF7047D3
:1004900048BF20F8022B11F0804F18BF00F8012B45
:1004A00070477047704770472DE9F0470D469946F1
:1004B0009246044600F124080168880604D5E069E4
:1004C00021F01001216000E00120A84201DD471B5E
:1004D00000E00027A1697A1902EB0900081AA0615F
:1004E0002078C00602D42046FFF792FE002608E0DE
:1004F000D4E901211AF806009047206A401C761CB6
:1005000020624E45F4DB2078C0060AD52046FFF76E
:100510007FFE06E0D4E9012130209047206A401C8C
:100520002062381EA7F10107F4DC07E0D4E90121BD
:1005300018F805009047206A401C2062281EA5F18B
:100540000105F3DC2046FFF779FE2078000602D58E
:100550000220BDE8F0870120FBE770472DE9FF4F3F
:100560000C461E464FF0FF378BB0D2E90001DDF894
:1005700060800A908A46C1F30A5505B93D460021BC
:1005800008464FF00000BAF1000F00F4400005DA11
:1005900000EB80004FF4400101EA50004FEA90590F
:1005A000B9F1010F00DDB9460A9850EA4A000ED0B1
:1005B00044F61050A5F2FF3545432F14B8F1000F53
:1005C0001ED07542291E1EDDC9F100021CE0B8F1E3
:1005D000010F4FF0000001D0302103E0F24305E0AD
:1005E0002154401CB042FBDB304600220021215444
:1005F0000B99C1F80880C1E900200FB0BDE8F08F69
:10060000BD1B6D1CDEE74A4600DA694206A800F011
:1006100059FA06AB93E8070003AB83E8070050469E
:100620000A9900F034FB8DE80700A0F500501F3850
:1006300000900398002D09DD42F21F014A4608444C
:1006400003A90390684600F093FD08E0A0F5005070
:100650004A461F3803A90390684600F09DFD8DE8C7
:1006600007000004000C03D04FF0FF30410800E009
:100670001046B8F1000F03D00022009215461EE08C
:10068000751E05D400F098F9303262556D1EF9D50B
:10069000B3460122084302D000227F1C04E02078E8
:1006A000302801D100227F1E002A099786D01DE044
:1006B000112D07DA00F080F9303262556D1C50EAD6
:1006C0000102F5D1084302D00098C8B10EE0002124
:1006D000681E05E0235C625C63542254401E491C82
:1006E0008142F7DBAB46A81B401E0990002004F8AE
:1006F0000B000B98099AC0F80880C0E9002B7CE732
:1007000011264FF0000859E72DE9F04F88460446BE
:10071000D21D22F0070191B0D1E90001CDE90A0113
:1007200003F0CDF802460B98C00F01D02D2007E052
:100730002068810701D52B2002E0202101EAC000BA
:10074000032A099001D0072A05DB034641462046CB
:1007500000F078F90BE12078800601D5E06900E02F
:100760000620B8F1650F814606D0B8F1660F18D0A3
:10077000B8F1670F70D131E00020B9F1110F00908E
:1007800001DB112301E009F101030AAA01A90CA868
:10079000FFF7E4FEDDE90C70002609F10105834650
:1007A00047E001204B4600904FF000470AAA01A9FC
:1007B0000CA8FFF7D3FEDDE90DB00C995D460026CD
:1007C00010B909F101000D18B9EB050003D4C0F10F
:1007D000FF3609F10105A5EB09002BE0B9F1010F86
:1007E00001DA4FF001090020B9F1110F00904846DD
:1007F00001DD112300E003460AAA01A90CA8FFF7B6
:10080000ADFEDDE90C704D460026834620780007DA
:100810000AD4AB4500DA5D4601A8012D04DD41197B
:1008200011F8011C302907D04F4502DA17F1040FE7
:1008300004DA012082460FE06D1EEEE7002F02DC95
:10084000ED1B3E4403E0781CA84200DD7D1CB81B74
:1008500000F1010A4FF000472078000703D4AA45B1
:1008600001DB4FF0FF3A0021B7F1004F0DF14308D3
:100870008DF8431024D002202B23002F01DA7F4271
:100880002D230A21021EA0F1010000DC5FB197FBBD
:10089000F1FC97FBF1F201FB1C7C17460CF1300CCC
:1008A00008F801CDEEE7A8F10100037021880905E1
:1008B00001D5452100E06521A0F1010800F8011CE7
:1008C00009980FA9A1EB0807FF1D00B101204119EC
:1008D00001EBEA70A1693844081A401EA061207833
:1008E000C00602D42046FFF793FC099828B1D4E94A
:1008F00001219047206A401C20622078C00622D542
:100900002046FFF785FC1EE0002E04DBB34502DD28
:1009100001A8805D00E03020D4E901219047206AE1
:10092000401C2062761CAAF101005FEA000A0AD18D
:1009300000F03EF8C0680168405CD4E901219047AE
:10094000206A401C2062281EA5F10105DCDC07E0BE
:10095000D4E9012118F8010B9047206A401C20625D
:10096000381EA7F10107F3DC2046FFF767FC0320E0
:1009700011B043E601694A1C02610878704700B56E
:100980008FB0CDE901310021059105497944CDE9C8
:10099000031011466846FFF79FFC0FB000BD000032
:1009A000E5FFFFFF0A6802F8010B0A6070470000CC
:1009B000004870476406002030B5B0F10A024FEAE3
:1009C000900E71F100034EEA817EB0EB0E0061EBF8
:1009D00091014FEA101E4EEA017E10EB0E0041EB32
:1009E00011114FEA102E4EEA016E10EB0E0041EB92
:1009F00011214FEA104E4EEA014E10EB0E0041EB72
:100A00001141401841F100014FEAD00040EA417025
:100A10004FEAD10110EB80054FEA810444EA90745B
:100A200044EB01046D1944EB0404521BA3414FF045
:100A3000000348BF0A3200D530BD401C41F100011F
:100A400030BD00002DE9F0411F4604460326016831
:100A5000072A01F4006004DB08B116A505E016A51D
:100A600003E008B115A500E015A521F010002060F5
:100A7000A069C01EA0610FB1401EA0612046FFF713
:100A8000C7FB4FB1D4E9012138469047206A401C8A
:100A90002062C01C206206E0206AFAE7D4E9012146
:100AA00015F8010B9047761EF8D22046FFF7C6FBDB
:100AB000BDE8F0814E414E006E616E00494E460029
:100AC000696E66002DE9F047814616468AB03348C4
:100AD00078440DC88DE80D0030487844801C03AC84
:100AE0000DC884E80D0041F69B300844372190FB87
:100AF000F1F290FBF1F5A5F1800501FB12041B3C1E
:100B000002D56442012000E00020DFF890A080467A
:100B10000027FA44AAF1BE0A0DE0E00709D03246E8
:100B2000684607EB47010AEB810100F035FB8DE8D1
:100B3000070064107F1C002CEFD1184F7F44AC3F9E
:100B400018E0E80714D007EB04100DF1180A90E83C
:100B50000E008AE80E00C068F04201D19819089092
:100B6000324606A903A800F017FB03AB83E8070091
:100B70006D10641C002DE4D132466946B8F1000FB7
:100B800003A802D000F0F4FA01E000F005FBC9E987
:100B90000001C9F808200AB0BDE8F087805B0000BA
:100BA00000487047440600207546FFF7F9FFAE463F
:100BB00005006946534620F00700854618B020B569
:100BC000FFF700FBBDE820404FF000064FF00007A4
:100BD0004FF000084FF0000B21F00701AC46ACE8E5
:100BE000C009ACE8C009ACE8C009ACE8C0098D4652
:100BF00070470446AFF300802046FFF7CEFA0000AE
:100C00004FF0013C50F8042B51F8043B9A4221D19B
:100C1000A2EB0C03934313EACC1317D150F8042B27
:100C200051F8043B9A4215D1A2EB0C03934313EA0B
:100C3000CC130BD150F8042B51F8043B9A4209D144
:100C4000A2EB0C03934313EACC13DBD04FF000006C
:100C5000704700BFD01A01BAB1FA81F101F0180152
:100C600022FA01F0CB40C1F12001DBB2C0B2C01AC0
:100C70002CFA01F3D11A914311EAC311E6D170475E
:100C800001491820ABBEFEE72600020070475FEA6C
:100C9000400C08BF91F0000F4FEA8C234FEAC122AD
:100CA00043EA51514FEA1C5018BF00F5F0404FEA9B
:100CB000300018BF41F000415FEA6C5C00F0298011
:100CC000BCF1FF3F08BF40F080407047130C06BFE7
:100CD00012044FF0100C4FF0000C130E04BF120260
:100CE0000CF1080C130F04BF12010CF1040C930F4C
:100CF00004BF92000CF1020CD30F04BF52000CF1A0
:100D0000010C11464FF00002A0F11F00A0EB0C00F7
:100D1000704711F0004F08BF704731F000413FF4B9
:100D2000D5AF0B0C06BF09044FF0100C4FF0000CB0
:100D30000B0E04BF09020CF1080C0B0F04BF0901D4
:100D40000CF1040C8B0F04BF89000CF1020CCB0FCB
:100D500004BF49000CF1010CCCF12003A0EB0C0006
:100D600022FA03F302FA0CF241EA030100F1010056
:100D7000704720F07F4C80EA030023F07F47ACEB04
:100D8000070303F57C5300F0004003F1FF032DE956
:100D900080494FEA154B09B44FEA144325EA0B4E3C
:100DA00024EA03480FF2042606EB132749083E788D
:100DB0005FEA320203FB0667C7F5000707FB06F68A
:100DC0004FEA54374FEAD64606F1020607FB066C97
:100DD000CCF1005C4FEA1C472CEA074C07FB06F4F9
:100DE0000CFB06F504EB15464FEA961634BF0020BF
:100DF0004FF000404FEAD13706FB07FC4FEA1C4C8E
:100E00000CFB0BF7D21B03FB0CF761EB07010CFB90
:100E10000EF7B0EB074072EB17420CFB08F734BF3C
:100E2000A2EB0742B2EB074261EB17414FEA0C44D9
:100E30004FEA910706FB07FC4FEA1C4C0CFB0BF733
:100E4000B0EBC74072EB573203FB0CF734BFA2EB99
:100E5000C742B2EBC74261EB57310CFB0EF7B0EB68
:100E6000C70072EB57720CFB08F734BFA2EBC70246
:100E7000B2EBC70261EB5771039F4FEA816141EA10
:100E8000921104EBCC044FEAD1374FEA826206FBA1
:100E900007FC42EA90124FEA80604FEA1C4C0CFBC0
:100EA0000BF7D21B03FB0CF761EB07010CFB0EF7F2
:100EB000B0EB074072EB17420CFB08F734BFA2EB14
:100EC0000742B2EB074261EB17414FEA8C554FEAFC
:100ED000910704EB9C2406FB07FC4FEA1C4C0CFB1F
:100EE0000BF7B0EBC74072EB573203FB0CF734BF84
:100EF000A2EBC742B2EBC74261EB57310CFB0EF7D6
:100F0000B0EBC70072EB57720CFB08F734BFA2EBD3
:100F1000C702B2EBC70261EB577115EB4C254FEAE4
:100F2000816141EA92114FEA82624FEAD13742EA87
:100F3000901206FB07FC44F100044FEA80604FEA80
:100F40001C4C0CFB0BF7D21B03FB0CF761EB0701EE
:100F50000CFB0EF7B0EB074072EB17420CFB08F7E7
:100F600034BFA2EB0742B2EB074261EB174115EB2E
:100F70001C154FEA813141EA92414FEA823242EA3E
:100F800090424FEA80304FEA0C7644F1000448EA80
:100F900003434EEA0B484FF0000EB2EB080C71EB26
:100FA000030724BF624639464EEB0E0E4FF0000B8E
:100FB0000018524149414BEB0B0BB2EB080C71EBA3
:100FC00003077BF1000B24BF624639464EEB0E0E41
:100FD0004FF0000B0018524149414BEB0B0BB2EBA9
:100FE000080C71EB03077BF1000B24BF6246394606
:100FF0004EEB0E0E51EA020718BF46F0010616EB43
:101000000E7655F1000254F1000103D5BDE88901C7
:10101000BDE80088BDE88901BDE80048B619524125
:1010200041EB0101A3F10103704780807F7E7D7C4D
:101030007B7A7978777676757473727171706F6E6A
:101040006E6D6C6C6B6A6A69686867666665646415
:10105000636362616160605F5F5E5E5D5D5C5C5B9F
:101060005B5A5A595958585757565655555554540E
:10107000535352525251515050504F4F4F4E4E4D6C
:101080004D4D4C4C4C4B4B4B4A4A4A4949494848B8
:1010900048474747474646464545454444444443F8
:1010A00043434342424242414141002B26D4770010
:1010B00021D01CB54FEA370703B44FF010004FF0B2
:1010C00010014FF000000FBCBDE810400BF1010B08
:1010D000BBF1010F08BF5FEA170722BF12F101023F
:1010E00011F101014FF0004143F1000300F0004015
:1010F00043EA00007047F9D35708DAE746EA0646A4
:1011000013F1400F4FEA16461FDD13F1200FDFBF2A
:1011100016430A46002120335B42C8D0C3F12007A2
:1011200046EA064602FA07F74FEA164646EA070677
:10113000C3F1200722FA03F201FA07F721FA03F1BB
:101140004FF0000342EA0702B1E746EA020646EA28
:1011500006464FEA164646EA0106BCBF46EA064680
:10116000360C4FF000034FF000024FF000019EE7F5
:101170002DE9C048934630B491E8380007C831EAF9
:10118000400C48BF34EA430C03D5FFF7F2FDFFF7EC
:101190008CFFF0BCBDE800882DE9C048934630B410
:1011A00091E8380007C810F0804F08BF13F0804F57
:1011B00003D100F005F8FFF778FFF0BCBDE8008828
:1011C00020F07F4780EA030023F07F4C07EB0C03FD
:1011D000A3F57C5300F00040A3F1FE0392F0000F52
:1011E00000F0B38095F0000F00F077802DE9014901
:1011F0004FEA11404FEA144621EA004800FB06FC82
:1012000024EA064708FB06F607FB08F800FB07F789
:1012100018EB06484CEB164C4FEA124B18EB0748FC
:101220004FEA15464CEB174022EA0B4E0BFB06FC2F
:1012300025EA06470EFB06F607FB0EFE0BFB07F73B
:101240001EEB064E4CEB164C4FF000061EEB074E05
:101250004CEB174B18EB0B0840F1000018EB0E0B92
:1012600058EB000840F100008F1A4FF000013CBF1E
:10127000C943661B14BFB5EB040C00213CBFC94336
:10128000F61B4FEA17444EEA8E0E27EA04454FEA52
:101290001C4704FB07622CEA074C05FB07F70CFB15
:1012A00005F604FB0CFC16EB074642EB174216EB67
:1012B0000C4642EB1C421BEB060658EB0202414176
:1012C00046EA9E0601D5BDE80189B619524141EBB7
:1012D0000101A3F10103BDE801894FEA14454FEA7A
:1012E000114724EA054621EA074C05FB07F406FBF3
:1012F00007F70CFB06F105FB0CFC11EB074144EB77
:1013000017444FEA124711EB0C4144EB1C4422EA0C
:10131000074C05FB07F206FB07F70CFB06F605FB7F
:101320000CFC16EB074642EB174216EB0C4642EB61
:101330001C456A1854F1000148BF7047B619524164
:1013400041EB0101A3F10103704795F0000F37D085
:101350004FEA11424FEA144721EA024624EA074CB9
:1013600002FB07F106FB07F70CFB06F402FB0CFC83
:1013700014EB074441EB17414FEA154714EB0C44BB
:1013800041EB1C4125EA074C02FB07F506FB07F77A
:101390000CFB06F602FB0CFC16EB074645EB17456B
:1013A00016EB0C4645EB1C42121951F1000148BFE7
:1013B0007047B619524141EB0101A3F10103704797
:1013C0004FEA14454FEA114724EA054621EA074C43
:1013D00005FB07F106FB07F70CFB06F24FF00006D2
:1013E00005FB0CFC12EB074241EB174112EB0C42E0
:1013F00051EB1C4148BF7047921841EB0101A3F12A
:101400000103704770B5044600688168C943C90785
:1014100017D1816821F00101816000F073FE05465B
:101420000AE000BF00F06EFE401B022804D92068CD
:101430008068C043C00706D020688068C043C007EA
:10144000F0D0002070BDA06A40F01000A062E06AF9
:1014500040F00100E062012070BD0000F8B50026F8
:101460000446009600688168C943C9072DD0816889
:1014700041F001018160164816490068B0FBF1F0A7
:1014800000E0401E00900028FBD100F03BFE054626
:1014900016E000BF00F036FE401B022810D920687D
:1014A0008068C043C0070BD0A06A40F01000A06263
:1014B000E06A40F00100E06284F824600120F8BD99
:1014C00020688068C043C007E4D10020F8BD000058
:1014D0003000002040420F00FEE7000010B5044637
:1014E00001F00CF80349B0FBF1F16143491EFDD254
:1014F00010BD000000093D0010B52820FFF7EEFFE9
:101500004FF40071034800F0F3FD08B1002010BD56
:10151000012010BD000C01401FB50A4B4FF40072B2
:10152000012120B100200092CDE9010104E0032057
:10153000CDE90021CDE902106946184600F0E8FC2B
:101540001FBD0000000C014070B50D4D4FF400743C
:101550002146284600F0CCFD0028F9D02820FFF7CE
:10156000BDFF2146284600F0C3FD002806D02146D5
:10157000284600F0BDFD0028F9D1012070BD000013
:10158000000C014070B5002425466006040EFFF7EC
:10159000DBFF08B144F001046D1CEDB2082DF4D35B
:1015A000204670BD30B58DB0202104A8FEF752FF53
:1015B00000200290039000F05FF8FFF79DFF0028E5
:1015C00047D0254D4FF400742146284600F090FD89
:1015D0000028F9D02146284600F08AFD0028F9D1DC
:1015E000002402ADFFF7CEFF2855641CE4B2052CA1
:1015F000F8D39DF808209DF809309DF80A109DF851
:101600000B00D4180D182C449DF80C50AC421ED180
:10161000CDE9001011A104A8FEF7E6FD012000218C
:101620000090102304AA084601F09AFE01F000FE83
:101630000F499DF808000968884205DC0D499DF8AE
:101640000A000968884200DD01200DB030BD00208D
:10165000FBE70220F9E70000000C014025642E257D
:1016600064252552482025642E2564430D0A000078
:10167000000000200400002010B50020FFF74CFF00
:1016800000224FF40071054800F037FD142000F0EF
:101690000DFCBDE810400120FFF73EBF000C0140EB
:1016A000014800F0F3BA00000006002030B590F8C1
:1016B00040500124AC40C56B6C60046863604368B3
:1016C000102B036803D099600068C26030BD9A6037
:1016D0000068C16030BD704710B54FF4805000F015
:1016E0000BFC4FF4005000F007FCBDE810404FF435
:1016F000804000F001BC72B6FEE70000F8B500249F
:10170000009490F824202546012A12D0012280F866
:1017100024204A681F23072A0DD20668776B521EC1
:1017200002EB820293409F430B6893401F43776311
:1017300019E00220F8BD06680D2A0AD2376BD21FC5
:1017400002EB820293409F430B6893401F43376331
:1017500009E0F76A0D3A02EB820293409F430B685F
:1017600093401F43F7620A68072306680A2A0AD3D0
:10177000F7680A3A02EB420293409F438B6893401A
:101780001F43F76008E0376902EB420293409F4332
:101790008B6893401F4337610A68102A01D0112AD1
:1017A00020D1124B02689A4217D193681B0219D4B8
:1017B000936843F4000393600968102912D10C491F
:1017C0000C4A0968B1FBF2F101EB8101490000E02C
:1017D000491E00910029FBD104E0816A41F02001FB
:1017E0008162012480F824502046F8BD0024014085
:1017F0003000002040420F000068C06C70470000BD
:101800002DE9F0414FF0000704003D467ED0A06A6C
:10181000002628B9E66284F82460204600F07EF8AD
:101820002046FFF7EFFDA16A01F01001014304D04B
:10183000A06A40F01000A06268E0A16A21F488511B
:1018400041F00201A1626268E169237B0A4347EA31
:1018500043010A43A1684FF48077B94208D00129B7
:1018600006D0002194F814C0BCF1010F02D00AE0A8
:101870003946F7E7F3B1A36A43F02003A362E36AB2
:1018800043F00103E3622368D3F804C02CF4694CED
:101890004CEA010CC3F804C023689968DFF870C0F3
:1018A00001EA0C0111439960A168B9420BD00129EA
:1018B00009D00CE0DFF85CC0A3690CEB43330B43A9
:1018C00043F40061DFE7218A0D05A5F58015216845
:1018D000CB6A23F470032B43CB62216889680E4BDB
:1018E0001940914208D1E662A16A21F0020141F05B
:1018F0000101A162BDE8F081A06A20F0020040F081
:101900001000A062E06A40F00100E0620120F1E70F
:10191000FDF7E1FF00E0FFFFFE0E1FFF00B585B001
:10192000002100910191029103911C4B02681C4817
:1019300003219A4215D1826942F400728261826960
:1019400002F400720492826942F0040282618069AA
:1019500000F0040004908020CDE9000169461148A0
:1019600017E0114B9A4216D1826942F4806282617B
:10197000826902F480620492826942F00802826104
:10198000806900F0080004900120CDE9000169465B
:10199000064800F0BDFA05B000BD0000002401407B
:1019A000001002400008014000280140000C0140E6
:1019B0002DE9F84300270D460446009700F0A2FBEE
:1019C000804620688168C90508D5A06A40F02000DB
:1019D000A06284F824700120BDE8F8834168C9053D
:1019E00003D4C06A10F4700F2AD0022000F028FC43
:1019F0003B490968B1FBF0F62068036939490B429D
:101A00004FEA61014FEAA1121FD1C3684FEA611C7E
:101A100013EA0C0F19D103690B4225D1C06810429B
:101A200022D1142023E0681C0AD02DB100F06AFBFB
:101A3000A0EB0800A84203D920680068800725D5DC
:101A4000206800688007EED52DE003690B4202D1C3
:101A5000C168114206D0026923490A4206D1C06812
:101A6000084203D1542002E0292000E0FC20464334
:101A7000009816E0681C11D02DB100F043FBA0EBDC
:101A80000800A8420AD90098B04207D2A06A40F0E4
:101A90000400A06284F8247003209DE70098401C95
:101AA0000090B042E6D321686FF012000860A06A8F
:101AB00040F40070A06220688068C0F342400728AC
:101AC0000CD1207B50B9A06A20F48070A062A06A7B
:101AD000C00403D4A06A40F00100A06200207BE7AC
:101AE00030000020244992244992240070B5044615
:101AF00090F8240001280DD0012084F8240020460D
:101B0000FFF7ACFC02004FF0000005D084F8240081
:101B1000104670BD022070BDA16A40F201239943B6
:101B200041F48071A1621F4D23681F49AB4218D157
:101B30000E6816F4702F14D0A66A46F48016A662BA
:101B40000E68760505D5A66A26F4005646F480563A
:101B5000A662A66AF6040AD5E66A26F00606E662DA
:101B600006E0A66A26F48016A6625E68E9E7E062EF
:101B700084F824006FF00200186020688368C3F3C3
:101B80004243072B05D1A84208D1096811F4702FF0
:101B900004D0816841F480118160B9E7816841F423
:101BA000A001F9E7002801400424014010B590F895
:101BB00021100022022905D00421816380F8202011
:101BC000012010BD01680B6823F00E030B60016853
:101BD0000B6823F001030B6090F84030C46B0121C7
:101BE00001FA03F3636080F8211080F8202010468A
:101BF00010BD000010B590F821100024022903D078
:101C00000421816301243DE001680A6822F00E028C
:101C10000A6001680A6822F001020A601A4A016833
:101C2000914201D1012121E0174A1432914201D1A0
:101C300010211BE0144A2832914201D1891515E088
:101C4000114A3C32914201D189140FE00E4A5032C0
:101C5000914202D14FF4803108E00B4A6432914244
:101C600002D14FF4801101E04FF08071064A083A2A
:101C70005160012180F82110002180F82010416B73
:101C800001B18847204610BD080002402DE9F05FF1
:101C9000C16B0C6801680B68D0F840C0042202FADE
:101CA0000CF2494DDFF824A1494E4A4FDFF828B124
:101CB000DFF828E122422CD05A072AD50A6892067A
:101CC00003D40A6822F004020A600168A94201D123
:101CD000042219E0514501D1402215E0B14202D160
:101CE0004FF4806210E0B94202D14FF480420BE021
:101CF000594502D14FF4802206E0714502D14FF4DC
:101D0000800201E04FF080622F4908394A60C16AC1
:101D10003BE04FF0020808FA0CF818EA040F4FF005
:101D200000094FF0010235D05FEA837832D50B68A5
:101D30009B0605D40B6823F00A030B6080F8212072
:101D40000168A94201D1022219E0514501D12022A6
:101D500015E0B14202D14FF4007210E0B94202D155
:101D60004FF400520BE0594502D14FF4003206E027
:101D7000714502D14FF4001201E04FF00072124998
:101D800008394A6080F82090816A00291AD0BDE89D
:101D9000F05F0847082505FA0CF5254212D01B070D
:101DA00010D50B6823F00E030B6090F84010C36B46
:101DB00002FA01F15960826380F8212080F82090B6
:101DC000016BE2E7BDE8F09F080002401C00024002
:101DD0003000024044000240580002406C000240C3
:101DE00030B528B308C8134914221944B1FBF2F1E5
:101DF0008900C16310498163022141771A6843F663
:101E0000F0718A43D0E900142143D0E902452C4304
:101E100021430469214344692143846921431143D7
:101E2000196000214163012242770177084630BDE5
:101E3000012030BDF8FFFDBF0000024070B5044630
:101E400090F82000002501280CD0012084F8200003
:101E500094F821600020012E06D084F8200002258D
:101E6000284670BD022070BD022684F82160A06360
:101E70002068066826F0010606602046FFF716FC7B
:101E8000E06A00282068016802D041F00E0106E0F7
:101E900021F0040101602068016841F00A0101603D
:101EA0002068016841F001010160D9E770B504467E
:101EB00000F028F90546601C02D00448007804446C
:101EC00000F020F9401BA042FAD370BD240000208E
:101ED0000849B0F5805F08D0B0F5005F07D0B0F5D5
:101EE000804F01D10220087070470020FBE70120DD
:101EF000F9E700001D000020044910B50A680242FD
:101F000002D00860FFF7E4FF10BD00001404014098
:101F10002DE9F84FDFF8B8910024A9F1040B23460E
:101F20000F2709F1040AABF1040EC9E00125A54011
:101F30002A40AA427DD1674ED1F804C0ACEB060816
:101F4000B44532D014DCBCF1030F3AD009DCBCF14B
:101F5000000F2AD0BCF1010F1CD0BCF1020F31D10F
:101F60001DE0BCF1110F17D0BCF1120F2AD119E0FE
:101F7000B8F5881F19D006DCB8F5803F15D0B8F544
:101F8000801F1FD111E0B8F5001F0ED0B8F5041F57
:101F900018D10AE0CB6815E0CB681B1D12E0CB68B6
:101FA00008330FE0CB680C330CE08B682BB1012BAE
:101FB0004FF0080303D0456104E0042302E005610B
:101FC00000E00023FF2A01D8064601E000F10406E4
:101FD0004FEA840501D9A5F12005D6F8008007FA5B
:101FE00005FC28EA0C0803FA05F548EA0508C6F8D6
:101FF00000804D68ED0062D5374DAE6946F00106B0
:10200000AE61AD6924F0030605F001050095334D7E
:1020100006EB050CDCF80850A607360F07FA06F8A1
:1020200025EA0805DFF8B880404503D14FF00008E5
:1020300017E044E0DFF8AC80404502D14FF00108E2
:102040000FE0DFF8A480404502D14FF0020808E01D
:10205000DFF89880404502D14FF0030801E04FF0CF
:10206000040808FA06F848EA0508CCF808804D6824
:10207000D9F80060ED024D4601D5164300E09643C5
:102080002E604D68DAF80060AD02554601D5164362
:1020900000E096432E604D68DBF80060AD035D46BE
:1020A00001D5164300E096432E604D68DEF80060CF
:1020B000ED03754601D5164300E096432E60641C7F
:1020C0000D682A46E5407FF431AFBDE8F88F000087
:1020D00008040140000011100010024000000140FF
:1020E00000080140000C01400010014000140140B4
:1020F0008068084000D0012070470AB10161704734
:102100000904FBE7014880687047000024000020B4
:1021100002488168027811448160704724000020E1
:10212000074810B5016841F010010160032000F07C
:1021300075F80F2000F006F800F024F8002010BD1C
:102140000020024070B50D4D04464FF47A71287896
:10215000B1FBF0F00A490968B1FBF0F000F0AAFB0E
:1021600048B9102C07D200222146501E00F036F844
:1021700000206C6070BD012070BD000024000020B4
:10218000300000200C4808B5816941F001018161EF
:10219000816901F001010091C16941F08051C16183
:1021A000C06900F0805000900448416821F0E0616F
:1021B00041F00071416008BD001002400000014084
:1021C000002809DB00F01F02012191404009800036
:1021D00000F1E020C0F8001170470000F0B40E4B91
:1021E0001B680C46C3F30223C3F10705042D00D975
:1021F0000425191D072901D2002300E0DB1E01265A
:1022000006FA05F1491E214099409E40761E16406F
:102210003143F0BC01F067BB0CED00E0064900F073
:10222000070208684FF6FF03184040EA0220034AFD
:1022300010430860704700000CED00E00000FA0554
:1022400010B501460020234C012922D0022939D0A3
:1022500010291DD161682268D20119D51E48C1F329
:102260008342C903805C0AD561681B4AC1F34041BF
:10227000921E515C194AB2FBF1F1484301E0184942
:1022800048436168490203D440000321B0FBF1F0E8
:1022900010BD226AC2F30121012903D1920701D5A1
:1022A000C80310BD022905D1626A920702D549F61A
:1022B000404010BD0329FCD121688903F9D54FF2B4
:1022C000244010BD00F030F96168C1F38131491C30
:1022D0004900DBE7001002409C65000800127A000C
:1022E00000093D002DE9F84305460078354CC0074C
:1022F00054D0E0690026C00008D4E06940F0805066
:10230000E061E069012600F0805000902E480168ED
:10231000C90512D40168804641F480710160FFF75D
:10232000F1FE074605E000BFFFF7ECFEC01B642886
:1023300023D8D8F80000C005F6D5206A10F4407004
:1023400021D0A98801F4407181421CD0206A1F4924
:10235000012220F440700A6000220A602062C00757
:1023600011D0FFF7CFFE074641F2883808E000BFE2
:10237000FFF7C8FEC11B414502D90320BDE8F88321
:10238000206A8007F4D5206A696820F44070084309
:1023900020621EB1E06920F08050E061287880075B
:1023A00005D56068A96820F440400843606028783B
:1023B000C00605D56068E96820F4800008436060C5
:1023C0000020DBE700100240007000404004424261
:1023D0002DE9F0470F46050061D0434E306800F00C
:1023E0000700B84209D2306820F007003843306057
:1023F000306800F00700B84251D128683B4C810793
:1024000012D5400703D5606840F4E060606028782A
:10241000000703D5606840F4605060606068A96898
:1024200020F0F000084360602878C00728D0686872
:10243000012810D02168022810D0890700292EDA3F
:10244000616821F0030101436160FFF75BFE804694
:1024500041F288390DE021688903EFE78901EDE752
:10246000FFF750FEA0EB0801494502D90320BDE863
:10247000F0876068696800F00C00B0EB810FEFD165
:10248000306800F00700B8420BD9306820F0070030
:1024900038433060306800F00700B84201D00120B6
:1024A000E5E72878400705D56068E96820F4E06032
:1024B000084360602878000706D56068296920F421
:1024C000605040EAC100606000F03EF86168084A70
:1024D000C1F30311515CC840064908600648006812
:1024E000FFF730FE0020C2E700200240001002404B
:1024F000AC6500083000002028000020014800687A
:102500007047000030000020044805490068496811
:10251000044AC1F30221515CC840704730000020DA
:1025200000100240BC65000804480549006849687D
:10253000044AC1F3C221515CC840704730000020FA
:1025400000100240BC6500080E4A51680E4801F0B8
:102550000C03042B11D0082B0FD10C48C1F383437B
:10256000C903C05C0AD55168084AC1F34041921EB4
:10257000515C054A5043B0FBF1F0704704494843B1
:10258000704700000010024000127A008A650008BF
:1025900000093D002DE9F84F040070D02078C04DAF
:1025A000C00749D06868C0F38100012807D0686877
:1025B000C0F38100022809D16868C00306D52868E5
:1025C000800339D560680028E7D035E06068B0F551
:1025D000803F0BD010B1B0F5A02F11D0286820F4A7
:1025E00080302860286820F4802002E0286840F4C9
:1025F00080302860606890B1FFF784FD06460AE0ED
:10260000286840F480202860F0E700BFFFF77AFDDB
:10261000801B642873D828688003F7D50CE0FFF787
:1026200071FD064605E000BFFFF76CFD801B6428C6
:10263000F0D828688003F7D420789A4E80074FF0AE
:1026400001094FF0000839D5686810F00C0F07D069
:102650006868C0F38100022809D16868C00306D405
:102660002868800714D52069012808D110E0206966
:10267000B0B1C6F80090FFF745FD074605E00AE156
:10268000FFF740FDC01B0228C4D828688007F7D593
:102690002868616920F0F80040EAC10028600DE078
:1026A000C6F80080FFF72EFD074604E0FFF72AFD7D
:1026B000C01B022823D828688007F7D42078000799
:1026C0002CD57948A169D9B1C0F80090FFF71AFD5F
:1026D000074604E0FFF716FDC01B02280FD8686A02
:1026E0008007F7D571484FF4FA510068B0FBF1F05C
:1026F000009000BF0098411E0091FAD20EE080E0E9
:10270000C0F80080FFF7FEFC074604E0FFF7FAFC84
:10271000C01B022875D8686A8007F7D42078400764
:1027200060D5E8690027C00008D4E86940F080500F
:10273000E861E869012700F0805000905C4801687A
:10274000C90513D40168834641F480710160FFF725
:10275000D9FC824606E000BFFFF7D4FCA0EB0A00DC
:1027600064284ED8DBF80000C005F5D5E0680128E4
:102770000AD008B1052813D0286A20F00100286289
:10278000286A20F0040002E0286A40F00100286274
:10279000E06841F2883B98B1FFF7B4FC82460BE059
:1027A000286A40F004002862EEE700BFFFF7AAFCA9
:1027B000A0EB0A0159455AD8286A8007F6D50CE0E3
:1027C000FFF7A0FC824605E0FFF79CFCA0EB0A01A6
:1027D00059454CD8286A8007F6D41FB1E86920F023
:1027E0008050E861E06988B36968C1F3810102291A
:1027F00044D00228C6F8608004D0FFF783FC04466A
:1028000038E034E0FFF77EFC074604E0FFF77AFC8F
:10281000C01B02282BD828688001F7D4206AB0F5A5
:10282000803F05D16868A16820F4003008436860E3
:10283000D4E908010843696821F474110843686009
:10284000C6F86090FFF75EFC044606E025E000BF96
:10285000FFF758FC001B022809D828688001F7D52B
:102860001BE000BFFFF74EFC001B022802D903202B
:10287000BDE8F88F28688001F4D40EE00128F7D075
:102880006868226A00F48031914204D1616A00F4E0
:102890007010884201D00120EAE70020E8E700003C
:1028A00000100240000042428004424230000020FA
:1028B0000070004010B5401EB0F1807F01D30120B0
:1028C00010BD4FF0E02460610F21601701F00BF89C
:1028D0000020A06107202061002010BD704710B5C6
:1028E00004460068406994F84110C0F3C0102129E3
:1028F00011D180B12068143050E8001F21F0800110
:1029000040E80012002AF5D1A06B08B1FFF74EF99C
:10291000204600F062FE2068406994F84210C0F33F
:102920008010222911D180B12068143050E8001F96
:1029300021F0400140E80012002AF5D1E06B08B117
:10294000FFF734F9204600F021FE002010BD70474B
:10295000F8B5016804460868CA684B6910F00F0FA3
:102960004FF000055AD003F0010602F49077374388
:1029700065D0C10705D0D10503D5616C41F00101D7
:102980006164410705D5D90703D0616C41F00201AC
:102990006164810705D5D90703D0616C41F004015A
:1029A0006164010707D502F02001314303D0616C57
:1029B00041F008016164616C00293BD0800604D5B8
:1029C000900602D5204600F016FE20684069616C32
:1029D000C0F3801001F00801014320462BD000F025
:1029E000D5FD20684069400621D52068143050E8A4
:1029F000001F21F0400140E80012002AF5D1E06BF1
:102A0000A8B16D494163E06BFFF7F4F8002811D0DD
:102A1000E06B416B01B0BDE8F040084783060ED57E
:102A200093060CD52046BDE8F84000F0E4BD2046F2
:102A3000FFF78DFFF8BDFFF78AFF6564F8BD266BD1
:102A40002023012E7CD1C6067AD5D60678D5086813
:102A50004868009048694FF00206400640D5E16B97
:102A6000086840680004000CE8D0A28D8242E5D9D5
:102A7000E085886920282DD020680C3050E8001FA0
:102A800021F4807140E80012002AF5D12168143148
:102A900051E8000F20F0010041E80002002AF5D1C2
:102AA0002068143050E8001F21F0400140E8001277
:102AB000002AF5D184F84230256320680C3050E8B4
:102AC000001F21F0100140E80012002AF5D1E06B50
:102AD000FFF76CF86663A08DE18D401A81B22AE0A1
:102AE000A08DE18D401A81B2E08D0028A6D000298A
:102AF000A4D022680C3252E8000F20F4907042E813
:102B00000007002FF5D12068143050E8002F22F084
:102B1000010240E80027002FF5D184F842302563F8
:102B200020680C3050E8002F22F0100240E800230B
:102B3000002BF5D166632046FFF7D0FEF8BDFFE716
:102B400005062BD5150629D594F841002128F5D185
:102B5000A068B0F5805F01D12069B0B1206A411C46
:102B60002162216800784860E08C401E0004000C5F
:102B7000E084E3D12068C16821F08001C160206851
:102B8000C16841F04001C160D8E7206A0088C0F305
:102B900008004860206A801C2062E5E74006CDD529
:102BA0005006CBD5CA68204622F04002CA6084F89D
:102BB000413000F039F9C1E78F34000870B50400E6
:102BC00004D094F84100002510B106E0012070BD4A
:102BD00084F84050204600F023F8242084F8410077
:102BE0002068C16821F40051C160204600F064FDF6
:102BF0002068016921F4904101612068416921F058
:102C00002A0141612068C16841F40051C1606564D6
:102C1000202084F8410084F842006563002070BDE4
:102C2000F0B585B000240094019402940394054605
:102C300003684648DFF810C102210322444E0715FD
:102C400063453BD1836943F480438361836903F423
:102C500080430493836943F0040383618069039292
:102C600000F0040004900802CDE9000169463046F6
:102C7000FFF74EF9CDE90074694630460294FFF73C
:102C800047F9354E3348C6E900048020C6E90240C2
:102C900034617461B4613046F461FFF7A1F808B1A2
:102CA000FEF729FDEE630022114625207562FFF72D
:102CB00095FA2520FFF784FA05B0F0BD274DAB4209
:102CC0001ED1C36943F40033C361C36903F4003305
:102CD0000493836943F0040383618069039200F0E5
:102CE000040004900420CDE9000169463046FFF756
:102CF0000FF90820CDE9000469463046029420E02F
:102D0000174DAB42D8D1C36943F48023C361C36973
:102D100003F480230493836943F00803836180698B
:102D2000CDE9007100F00800CDE903200D4D6946A2
:102D30002846FFF7EDF8E814CDE900046946284677
:102D40000294FFF7E5F8B7E70038014000100240B1
:102D500000080140580002400006002000440040E6
:102D600000480040000C014090F84230202B01D078
:102D70000220704721B11AB10023036300F0F8BCB0
:102D800001207047704770472DE9F843044690F8DA
:102D90004100984616460D46202802D00220BDE884
:102DA000F88385B17EB100206064212084F8410061
:102DB000FFF7A8F9A6848146E684A0682027B0F52D
:102DC000805F02D003E00120E9E7206910B12E46C0
:102DD00000250EE000260CE08021204600F010FDCA
:102DE000A8B9C6B116F8010B21684860E08C401EF6
:102DF000E084E08C4B464FF00002CDF800800028C4
:102E0000EAD14FF04001204600F0FAFC40B184F8CE
:102E100041700320C3E735F8020BC0F30800E3E775
:102E200084F841700020BAE77047FEE73EB5002401
:102E300011480094019402940E4984600160047367
:102E40000475012505614FF460214460C161FEF7FE
:102E5000D7FC08B1FEF74FFC0720CDE90005694615
:102E600002940548FEF74AFC002801D0FEF743FC17
:102E70003EBD000000240140B40400203EB5002403
:102E800011480094019402940E4984600160047317
:102E90000475012505614FF460214460C161FEF7AE
:102EA000AFFC08B1FEF727FC0820CDE90005694614
:102EB00002940548FEF722FC002801D0FEF71BFC17
:102EC0003EBD000000280140E4040020094808B588
:102ED000416941F0010141614069002200F00100B7
:102EE000009011460F20FFF779F9BDE808400F2048
:102EF000FFF766B9001002402DE9F04186B00020CE
:102F000000900190029003902B48816941F02001CC
:102F10008161816901F020010491816941F004011E
:102F20008161816901F004010491816941F0080126
:102F300081618069214F00F008000490012240F275
:102F400053113846FFF7D9F8002220213846FFF701
:102F5000D4F8DFF86C804FF4024601223146404637
:102F6000FFF7CBF8012440F27310CDE900040325EC
:102F700069463846CDE90245FEF7CAFF4FF4E04006
:102F800000901048CDE9010469464046FEF7C0FFB5
:102F9000CDE9006469464046CDE90245FEF7B8FF39
:102FA000002211462820FFF719F92820FFF708F919
:102FB00006B0BDE8F08100000010024000080140AA
:102FC000000C01400000211010B5114C0F480C21DD
:102FD00020604FF4165060600020A060E060C4E9FB
:102FE0000401A061E0612046FFF7E8FD08B1FEF7AB
:102FF00082FB2068C16841F01001C16004491422BD
:10300000BDE8104014390248FFF7AEBE0038014059
:10301000280500200C4810B50A4901604FF4E13141
:103020004160002181600C22C160C0E9041281610D
:10303000C161FFF7C3FD002803D0BDE81040FEF7D3
:103040005ABB10BD00440040700500200C4810B56C
:103050000A4901604FF4E1314160002181600C2296
:10306000C160C0E904128161C161FFF7A7FD0028BA
:1030700003D0BDE81040FEF73EBB10BD0048004045
:10308000B8050020FEE7FEE730B40021084B0A46F1
:103090005FF0000003EBC004401CC0B26254802803
:1030A000F8D3491CC9B20829F2D330BC00F0C0B82B
:1030B0003400002030B1012807D100215FF0A700C3
:1030C00000F06CB90021A620FAE7704710B558B19E
:1030D000012810D10021C02000F060F90021A020BB
:1030E000BDE8104000F05AB90021C82000F056F9A0
:1030F0000021A120F4E710BD30B5CC0801F0070392
:1031000001259D40EBB2064D05EBC005C808285CC3
:103110000AB1184302E063EA0000C043285530BDFD
:103120003400002010B5414C002210212046FEF74B
:10313000E4FFC820FEF7BAFE012210212046FEF768
:10314000DCFF0021AE2000F029F90021084600F044
:1031500025F90021102000F021F90021402000F085
:103160001DF90021812000F019F90021CF2000F085
:1031700015F90021A12000F011F90021C82000F06C
:103180000DF90021A62000F009F90021A82000F087
:1031900005F900213F2000F001F90021D32000F0C3
:1031A000FDF80021084600F0F9F80021D52000F0D4
:1031B000F5F80021802000F0F1F80021D92000F07E
:1031C000EDF80021F12000F0E9F80021DA2000F00C
:1031D000E5F80021122000F0E1F80021DB2000F0EA
:1031E000DDF80021402000F0D9F80021202000F077
:1031F000D5F80021022000F0D1F800218D2000F048
:10320000CDF80021142000F0C9F80021A42000F01E
:10321000C5F80021A62000F0C1F8FFF735FF002116
:10322000BDE81040AF2000F0B9B800000008014030
:1032300070B5114E002400BF04F1B000C0B20021EF
:1032400000F0ACF80021084600F0A8F8002110209A
:1032500000F0A4F85FF0000506EBC5000121005D59
:1032600000F09CF86D1CEDB2802DF5D3641CE4B227
:10327000082CE1D370BD0000340000202DE9FC4F84
:103280001C460E4682468B460190082B0DD06007E7
:1032900000D0012000EBD40061084843C0B2814651
:1032A000203AD0B2009000204BE00620F7E7082C2F
:1032B00013D00C2C18D0102C1BD0182C44D10098F3
:1032C000234900EBC00000BF01EB8001002711F88B
:1032D0000850E80712D00B9A13E000981D4900EB44
:1032E000400001EB4001F1E700981B4900EB400072
:1032F000EAE71A49009801EB0011E7E70B9828B3B9
:10330000002231465046FFF7F7FE761C7F1C6D0801
:10331000FFB2F6B2082FDCD30AF1010000F0FF0A79
:10332000082C0AD00199AAEB0100B0EB540F04D18C
:103330000BF108008A4600F0FF0B08F101005E4621
:10334000C0B280464845B2D3BDE8FC8F0122D8E721
:103350000454000878470008A0490008144E0008EB
:103360002DE9F8411E46154688460446079F0BE0A6
:103370003346414620460097FFF780FF082E0AD0CB
:1033800004EB5600C4B26D1C2A78A2F120005E281E
:10339000EED9BDE8F881A41DE4B2F4E770B51A4E89
:1033A000054609B1012200E0002220213046FEF747
:1033B000A4FE002240213046FEF79FFE002400229A
:1033C00001213046FEF799FE280601D5012200E0D2
:1033D000002202213046FEF790FE012211463046BF
:1033E000FEF78BFE6806641C050EE4B2082CE6D3DB
:1033F000012240213046FEF780FE3046BDE8704095
:1034000001222021FEF779BE000801407047704775
:10341000FEF77EBE30B593B028216846FDF71AF856
:1034200014210AA8FDF716F8002501200F95109524
:103430001195010412958DE8230004904FF4E010DB
:10344000CDE90810022407946846FFF7A3F808B1F5
:1034500072B6FEE70AA90F2081E831004FF48060C0
:10346000CDE90D0502210AA8FEF7B2FF08B172B638
:10347000FEE74FF4004011900F940FA8FEF732FFC3
:10348000002801D072B6FEE713B030BD704710B50A
:10349000406A0021C185C184FFF759FA10BD70B59B
:1034A000446A2068406994F84110C0F3C0100025B8
:1034B000212904D118B1E584204600F08EF8206857
:1034C000406994F84210C0F38010222904D118B149
:1034D000E585204600F05AF8606C40F0100060640A
:1034E0002046FFF734FA70BD10B50146406A0968FE
:1034F00009684FF0000289062ED4C28501680C319C
:1035000051E8003F23F4807341E80034002CF5D1EA
:103510000168143151E8003F23F0010341E8003411
:10352000002CF5D10168143151E8003F23F040032D
:1035300041E80034002CF5D1202180F84210016BC5
:10354000012909D101680C3151E8003F23F0100333
:1035500041E80034002CF5D14263016B012902D00F
:10356000FFF710FC10BD818DFFF7B8F910BD10B545
:10357000406A01214163016B012902D0FFF703FC7E
:1035800010BD818D4908FFF7A9F910BD01680C3104
:1035900051E8002F22F4907241E80023002BF5D16E
:1035A0000168143151E8002F22F0010241E80023A4
:1035B000002BF5D1016B012909D101680C3151E8CB
:1035C000002F22F0100241E80023002BF5D120212A
:1035D00080F8421000210163704701680C3151E806
:1035E000002F22F0C00241E80023002BF5D120215A
:1035F00080F84110704708B590F84210222901D098
:10360000022008BD82684FF480539A4201D10169BB
:1036100021B1816A9A421BD04AB10AE00268816AEC
:103620005268C2F308020A80816A891C08E00269B4
:1036300072B10268526802F07F020A70816A491C06
:103640008162C18D491E0904090CC18503D01BE0AC
:1036500002685268F1E70168CA6822F02002CA6075
:103660000168CA6822F48072CA6001684A6922F05F
:1036700001024A61202180F8421000214163026B5F
:10368000012A03D0FFF77EFB002008BD016301681B
:103690000C3151E8002F22F0100241E80023002BEA
:1036A000F5D101680A68D20602D50A684968009116
:1036B000818DFFF713F9E7E770B5044600680169EB
:1036C000E26821F44051114301612169A068084377
:1036D000616908432168CA6841F20C639A43024356
:1036E000CA6020684169A26921F4407111434161B7
:1036F0001E492068884202D1FEF716FF01E0FEF75E
:1037000003FF00EBC00101EB001260686421800040
:10371000B2FBF0F3B3FBF1F36FF018067343B2FBA7
:10372000F0F5B2FBF0F605EB8305322303EB05154C
:10373000B5FBF1F5B6FBF1F605F0F00505EB061566
:10374000B2FBF0F6B2FBF0F0B0FBF1F06FF0180254
:10375000504306EB800003EB0010B0FBF1F0216852
:1037600000F00F002844886070BD00000038014060
:1037700038B58162044682850020134660642222A7
:1037800084F84220E56B1B4AAA62E56B1A4AEA629A
:10379000E56B1A4A2A63E26B50630A462168E06BC4
:1037A000091DFEF74BFB2068016840680090206906
:1037B00048B120680C3050E8001F41F4807140E8A7
:1037C0000012002AF5D12068143050E8001F41F0A3
:1037D000010140E80012002AF5D12068143050E8B9
:1037E000001F41F0400140E80012002AF5D10020FE
:1037F00038BD0000E93400086F3500089F34000828
:103800002DE9F843984617460D460446089E24E0E5
:10381000701C22D0FEF776FCA0EB0800B0421AD84C
:10382000CEB12068C168490717D5802D15D0402D2D
:1038300013D00168C94309070FD401680025406807
:1038400000902046FFF7A2FE0820606484F84050F4
:103850000120BDE8F8830320FBE72068006835EA13
:10386000000004D00020B842D2D00020F1E70120AF
:10387000F9E700000D4808B500680168C943C906AA
:103880000FD40168406800900848FFF728F80848FE
:10389000006840680749C0F114000860064901202B
:1038A0000870BDE808400148FFF752B8280500201D
:1038B00000060020200000201E000020FEE7490036
:1038C00050EAC12018BF04204A0D18BF40F0010083
:1038D00040F2FF72B2EB515F08BF40F002000128D6
:1038E00008BF052070470907090E002804DB00F116
:1038F000E02080F80014704700F00F0000F1E02095
:1039000080F8141D704730380A2801D20120704712
:103910000020704780F001024FF400410148FEF79B
:10392000ECBB0000000C014080F001024FF48071FC
:103930000148FEF7E2BB0000000801408CB0FEF732
:10394000EFFBFFF767FDFFF7D7FAFFF7BFFAFFF7C7
:103950006DFAFFF793FAFFF737FBFFF75BFBFFF713
:1039600075FBFFF7DFFB0020FFF7A4FB0020FFF74C
:10397000ADFBFFF789FB4FF0663ADFF888B16FF0D7
:103980000B08DFF884910124FDF70CFE0B905F48D3
:10399000FEF7ACF80A215D48FEF70AF85B48FDF730
:1039A0002BFF80B200F08AFB564652465F465B46CC
:1039B00000F098FB424600F099FE00F09DFA0546A3
:1039C00000F078FD02460B4651A101A8FCF70CFC63
:1039D000102301AA194600200094FFF7C1FCFFF74D
:1039E00027FC4E48FEF782F80A214C48FDF7E0FF1D
:1039F0004A48FDF701FF80B200F060FB32463B46CB
:103A000000F070FB424600F071FE00F075FA0646C9
:103A100000F050FD02460B4641A106A8FCF7E4FB6E
:103A2000102306AA202100200094FFF799FCFFF73D
:103A3000FFFB3E4F2846F96800F074FD04D3304682
:103A4000396900F0EEFD09D238494FF6FF730922BB
:103A500014313748FFF798F900F07AF899F8001018
:103A6000D9B33448002589F8005001784278C678E7
:103A70008B1881780E443344067933444679DBB29F
:103A8000B3421FD1064601EB02222BA101A8FCF78D
:103A9000ABFB102301AA302100200094FFF760FC4B
:103AA000FFF7C6FBB178707801EB0020B968884257
:103AB00022DC0B9801281FD00020FFF735FF0020E3
:103AC000FFF728FF1F48142105601A48FCF7A0FCE7
:103AD000142218491C48FFF747F91C4D2878022882
:103AE0007FF452AF6420FEF7E1F903202870FFF75E
:103AF000CBFA00F08FF847E70120FFF715FF012010
:103B0000DEE7000066660A401E000020B4040020C4
:103B1000466972653A252E3266000000E4040020F2
:103B20004761733A252E3266000000000000002035
:103B30007005002014050020434F323A25642070A0
:103B4000706D000020000020280500201D000020CE
:103B500038B51A208DF800004FF6FF7423460B226B
:103B600012A11548FFF710F94FF47A752846FEF7B1
:103B70009DF923461A2211A10F48FFF705F928469F
:103B8000FEF794F92346382213A10B48FFF7FCF8FF
:103B90002846FEF78BF92346012269460648FFF7BF
:103BA000F3F82846FEF782F938BD000041542B4354
:103BB0004D47463D310D0A00B805002041542B43C6
:103BC0004D47533D222B3836313832333731303977
:103BD000353437220D0A000044616E67657221207A
:103BE0004465617220757365722C20796F7572203F
:103BF000696E646F6F7220656E7669726F6E6D6547
:103C00006E742069732061626E6F726D616C0D0A53
:103C1000000000002DE9F04F9DB00120002500902C
:103C2000102394A229461420FFF79AFBFFF700FB0C
:103C3000924EDFF84C92934C4FF0630B4FF0030A17
:103C4000002791A108A82268FCF7CEFA35B907E051
:103C50008DA108A8D8F80020FCF7C6FA012000E0E2
:103C600000200090082308AA10210020FFF778FB0D
:103C700087A10DA86268FCF7B7FA012D01D00120D9
:103C800000E00020009008230DAA10214620FFF735
:103C900067FBE06800F00EFC02460B467EA112A80E
:103CA000FCF7A2FA022D01D0012000E000200090D4
:103CB000082312AA20210020FFF752FB206900F000
:103CC000F9FB02460B4677A117A8FCF78DFA032DE6
:103CD00001D0012000E000200090082317AA202135
:103CE0004620FFF73DFB72A101A8A268FCF77CFA11
:103CF000042D0AD001200090082301AA30210020C1
:103D0000FFF72EFB052D07D108E0082301AA30217B
:103D100000200097FFF724FB012000E00020009026
:103D2000082366A230214620FFF71AFBFFF780FA2E
:103D30003078022801D058B14DE06420FEF7B6F883
:103D40006D1C86F800A0052D7FF77BAF002578E776
:103D50006420FEF7ABF886F800A0052D3BD2DFE823
:103D600005F0030A112131002068401E2060EED5C5
:103D7000C4F800B065E76068401E6060E7D5C4F82D
:103D800004B05EE7E06800F095FB4E4A4E4B00F051
:103D9000A7FA00F0B1F8E06010F1FF4FD7D3C4F8F4
:103DA0000C904EE7206900F085FB464A464B00F038
:103DB00097FA00F0A1F8206110F1FF4FC7D3C4F8C3
:103DC00010903EE7A0680A38A060B0F5C87FBEDA60
:103DD0004FF4617047E030780128B8D16420FEF7D5
:103DE00065F886F800A0062DB1D2DFE805F0030AD9
:103DF0001123343E2068401C20606328A7DD276023
:103E00001FE76068401C60606328A0DD676018E7FA
:103E1000A046E06800F04EFB2A4A2B4B00F09EF8CB
:103E200000F06AF8C8F80C0048457FF711AFC8F8F1
:103E30000C700DE7A046206900F03CFB214A224BA4
:103E400000F08CF800F058F8C8F810004845F0DD94
:103E5000C8F81070FCE6A0680A30A060B0F5617F79
:103E600088DD4FF4C870A060EBE6FFF70DF91DB0D8
:103E7000BDE8F08F53657474696E67001D00002003
:103E8000000040400000002052483A2530326400D3
:103E900054483A2530326400466972653A25302E1E
:103EA000316600004761733A25302E31660000000C
:103EB000434F323A25303364000000004241434B07
:103EC000000000009A9999999999B93F10B5002975
:103ED0000AD00878002807D005487844FCF790FEFF
:103EE000002801D0002010BD0248784410BD000019
:103EF000B2270000AA27000021F00042A2F1605280
:103F0000B2F5801F01F0004328BFD2F17F6C0BD9BE
:103F10005FEA001C43EAC20242EB507018BF7047D0
:103F200028BF20F001007047B2F5801FBCBF1846C3
:103F300070474FEA410C1CF5001F02D2084600F002
:103F40006BBB70B500F078F900000089FFF7F6BF91
:103F50004FF00040A0F580007047000010B591EAD6
:103F6000030F48BF83F0004300F1C281841A71EB54
:103F7000030C05D2121943EB0C03001B61EB0C017F
:103F8000DFF824E14FEA1154A4EB135C1EEA430F5F
:103F900018BF9EEA445F73D023EA0E03DCF1200EC3
:103FA00021EA045143F4801332D322FA0CFE10EBC1
:103FB0000E0023FA0CFE41EB0E01CCF1200E03FAA9
:103FC0000EFE10EB0E0051F10001B1F5801FCCF197
:103FD000200E32D201EB045112FA0EF2BDE810406D
:103FE00058BF7047401C38BF5FEA420218BF704795
:103FF000002814BF20F0010041F100014FEA410305
:1040000013F5001F38BF7047A1F1C04100F062B93D
:10401000012A43EB0302ACF1200CDCF11F0E32BF8E
:104020004FF0000E23FA0CF310EB030041EB0451A8
:10403000B4EB115FD0D0A1EB045101F58011490818
:104040005FEA300001EB04510ED350F1000038BF9D
:1040500012FA0EFE08D1BDE81040C9E7401C38BF77
:104060005FEA4202CAD1C3E7BDE810404FEA41030C
:1040700013F5001F38BF7047A1F1C04100F02AB905
:104080009EEA445F08D011EA5E0FBDE8104004BF0D
:1040900001F0004100207047BDE8104070B500F00D
:1040A000CBF800BF64FBBE3E0000E0FF02494FF0CA
:1040B000000000F0E9BA00BF0000F87FB0FA80F31A
:1040C00010FA03F10AD0C3F11D0303F580634FEA30
:1040D00041504FEA035202EBD12170474FF00000EC
:1040E00070470000DFF848C170B51CEA111E1EBF02
:1040F0001CEA13159EEA0C0F95EA0C0F00F06F8076
:1041000081EA030423EA4C134EEAD47E21EA4C11DF
:1041100041F4801143F48013AE44A1FB024CA0FB98
:104120000365AEF17F7E361955EB0C05A1FB034C00
:104130004CF10003A0FB021C16EB0C06654153F189
:104140000003094218BF46F0010613F4007F0BD1AB
:104150004FEA03314FEA0530340341EA155140EA92
:1041600016506FF003020AE04FEAC3214FEAC52060
:10417000F40241EA555140EA56506FF0020202EB58
:104180002E4201EB025585EACE710AD05FEA440C5B
:1041900018BF24F0004450F1000041F1000120EA72
:1041A000D47040F2FE7C624500D270BDA84214BFBC
:1041B0004FF080444FF04044002E08BF0024BEF171
:1041C000806FA8BFA1F1C041BDE8704080F282803D
:1041D0004FF0000001F1C04101F0004170479EEA3C
:1041E0000C0F0CEA131518BF95EA0C0F06D04FF010
:1041F000000081EA030E0EF0004170BD00F01CF8D3
:104200008900013E00F007B800F009B84FEA430CFE
:104210005FEA5C5C08D081EA030100F05BB84FEA1A
:10422000410C5FEA5C5CF6D14FF000000149704739
:104230000000FF070000F87F0EF1020E2EF0030EC3
:104240005EF8046B364205D4012A43EB030515F5ED
:10425000001F12D8012841EB010C1CF5001F0CD8DF
:104260000ED14FEAD17C15F5001F0CEB4C0C0CF174
:10427000020C08BF4CEBD37C04E04FF0080C01E0CB
:104280004FEAD37C0CEB4C0526FA05F606F0070640
:10429000B6F1040C06D20EEB860CBDE870404CF073
:1042A000010C6047DFE80CF0090B02024FF00041FF
:1042B0004FF00000A1F5002170BD194610460128FD
:1042C00051EB010418BFD4F5001484BF002001F0A5
:1042D000004170BD0808A0F500114FEA3101704798
:1042E00010B591EA030F48BF83F000433FF53EAE9F
:1042F000841A71EB030C07D212198CF0004C43EBBB
:104300000C03001B61EB0C01DFF8A4E14FEA115430
:10431000A4EB135C1EEA430F18BF9EEA445F00F053
:10432000B08023EA6E03524221EA0451C3EB6E03CC
:1043300038BF5B1EDCF1200E25D322FA0CFE10EBF9
:104340000E0043FA0CFE41EB0E01CCF1200E03FAF5
:104350000EFE10EB0E0051F10001CCF1200E29D41D
:1043600012FA0EF201EB0451BDE8104058BF70473D
:10437000401C1CBFB2F1004F704700280CBF491C05
:1043800020F00100704712EB020E43EB030218BF4E
:104390004FF0010E4EEA4202ACF1200CDCF11E0E91
:1043A00054D943FA0CFE10EB0E0051F1FF31CCF161
:1043B0001E0ED5D50EF1010E12FA0EFE404141EB54
:1043C000010101EB445C5FEA5C5C10D910EBDE702C
:1043D00001EB045138BFBEF1004FBDE8104018BFDB
:1043E000704700280CBF491C20F00100704730D2F4
:1043F0004FEAD42C11F5001124F400641BD0B1FA5B
:1044000081F20B3AA41AA41ED2F12003914030FA93
:1044100003F31943904001EBCC71002C01EB0451E4
:10442000BDE81040A8BF704701F1C0414FF0000047
:1044300001F000417047B0FA80F310FA03F100D1A7
:1044400010BDE41A173C4805C90AE4E701EB045122
:1044500010BD491001EB0451BDE810404FEA300097
:1044600002E04FF0000170474A0008BF0042F8D058
:10447000B2F5001F28BF704701F000414FF0000067
:1044800070479EEA445F07D011EA5E0FBDE8104016
:1044900004BF002100207047BDE8104070B5FFF751
:1044A000CBFE00BF40DFF63E83F000411046704770
:1044B0000000E0FF43004FEAD30C4FEA3C0C4340BE
:1044C0001FBF40070CF1605113F0FE4F70471CF006
:1044D000006F03D100200CF0004170470CF0004346
:1044E00043EA507010B540EACC0000F04FF800BF2E
:1044F000000000924FEA0001FFF7ECBE4FF00041D0
:104500004FF00000A1F500217047401058BFC0F1E6
:104510004040491058BFC1F140418142EFF3008053
:104520007047000050EA010C00F113801CF5000FE9
:1045300058BFBCF5000F01D48842704707D710F56B
:10454000000F58BF11F5000F15D4884270478942FB
:1045500070471CF5000F04D5BCF5000FF7D581425C
:1045600070474FF0807C1CEB400F38BF1CEB410FB5
:1045700001D28142704710B500F008F8922449003A
:104580004FF000504FF08051FFF7BFBF0EF1020E09
:104590002EF0030E5EF8044B244204D44FEA41028D
:1045A000B2F17F4F11D84FEA4003B3F17F4F0CD8DF
:1045B0000ED14FEAD07CB2F17F4F0CEB4C0C0CF1DA
:1045C000020C08BF4CEBD17C04E04FF0080C01E07A
:1045D0004FEAD17C0CEB4C0324FA03F404F00704FB
:1045E000B4F1040C06D20EEB840CBDE810404CF084
:1045F000010C6047DFE80CF0070802024FF00040B2
:10460000A0F5800010BD0846420018BFD2F18072AC
:1046100088BF00F0004010BDFF2141EAD050C00526
:10462000704751EA000C00F113801CF5000F58BFD1
:10463000BCF5000F01D48142704707D711F5000F78
:1046400058BF10F5000F15D481427047894270475A
:104650001CF5000F04D5BCF5000FF7D58842704754
:104660004FF0807C1CEB410F38BF1CEB400F01D298
:104670008842704780EA010081EA000180EA010077
:10468000FFF779BFFCF740B80CF00F03092B08BF08
:10469000082000F059800A2B0BD0082B18BF704758
:1046A00008BF1CF0400F0AD04FF000004FF000018F
:1046B00070471CF0400F18BF4FF0004070471CF0CF
:1046C000100F08D020F0704300F07F4242EAD3017F
:1046D0004FEA4370704700F0604021F07F4242EAA9
:1046E000000201F07F4040EA727070474FF0FF0C0B
:1046F0004CF4E06C1CEA11531CBF9CEA030C94457B
:10470000C2BFDA4201EB02517047002B0DD0BCF161
:10471000000F0FD0002A01F00041A4BF41F0E0419A
:1047200041F07F614FF00000704701F000414FF011
:104730000000704750EA01334FF09B0C18BF4CF05B
:10474000806C7FF4B3AC70471CF4801F11D01CF454
:10475000E02F03D06FEACC31490070474FF0405052
:10476000EFF3008222F0704242EA000282F30088F6
:1047700070474FF00000704700000000000000008C
:10478000002F000000000700070000147F147F14B2
:1047900000242A7F2A120062640813230036495538
:1047A000225000000503000000001C224100000010
:1047B00041221C000014083E08140008083E0808A6
:1047C000000000A060000008080808080000606001
:1047D0000000002010080402003E5149453E000040
:1047E000427F4000004261514946002141454B3122
:1047F000001814127F10002745454539003C4A49EE
:10480000493000017109050300364949493600065F
:104810004949291E000036360000000056360000C7
:104820000008142241000014141414140000412242
:10483000140800020151090600324959513E007C1A
:104840001211127C007F49494936003E4141412204
:10485000007F4141221C007F49494941007F0909ED
:104860000901003E4149497A007F0808087F00009D
:10487000417F4100002040413F01007F0814224158
:10488000007F40404040007F020C027F007F040810
:10489000107F003E4141413E007F09090906003E6C
:1048A0004151215E007F0919294600464949493195
:1048B0000001017F0101003F4040403F001F2040B8
:1048C000201F003F4038403F006314081463000776
:1048D0000870080700615149454300007F414100CD
:1048E00000552A552A55000041417F00000402016D
:1048F000020400404040404000000102040000204B
:1049000054545478007F4844443800384444442088
:1049100000384444487F00385454541800087E0935
:1049200001020018A4A4A47C007F080404780000FD
:10493000447D4000004080847D00007F10284400BA
:104940000000417F4000007C04180478007C0804CB
:10495000047800384444443800FC24242418001807
:10496000242418FC007C08040408004854545420F3
:1049700000043F444020003C4040207C001C20407C
:10498000201C003C4030403C004428102844001CBF
:10499000A0A0A07C004464544C44141414141414B7
:1049A0000000000000000000000000000000FC000B
:1049B0000000000002000000000C020C02000000D9
:1049C0000000000090D0BCD0BC90000300030000A9
:1049D0001824FE448C000302070201001824D8B0FA
:1049E0004C80000300010201C038E438E0000102FD
:1049F00002010202080600000000000000000000A2
:104A0000000000F80402000000010204000204F8A3
:104A100000000004020100009060F86090000000B7
:104A2000010000002020FC20200000000100000008
:104A300000000000000008060000000020202020E8
:104A40002000000000000000000000000000000244
:104A5000000000000080601C020004030000000051
:104A6000F8040404F8000102020201000008FC003E
:104A7000000000020302000018844424180003020E
:104A80000202020008042424D800010202020100EC
:104A900040B088FC80000000000302003C24242475
:104AA000C400010202020100F824242CC00001020B
:104AB000020201000C04E41C0400000003000000DA
:104AC000D8242424D80001020202010038444444BE
:104AD000F8000003020201000000100000000000C6
:104AE000020000000000200000000000060000009E
:104AF0000020508804020000000001029090909075
:104B00009000000000000000000204885020000215
:104B1000010000001804C424180000000200000076
:104B2000F804E494F80001020202020000E09CF0A4
:104B3000800002030000030204FC2424D8000203C6
:104B400002020100F80404040C0001020202010048
:104B500004FC0404F80002030202010004FC2474B3
:104B60000C0002030202030004FC24740C00020384
:104B700002000000F0080444CC40000102020100E1
:104B800004FC2020FC040203000003020404FC04D3
:104B90000400020203020200000404FC04040604F0
:104BA0000403000004FC24D00C04020302000302EE
:104BB00004FC04000000020302020203FC3CC03CAF
:104BC000FC0003000300030004FC30C4FC040203E7
:104BD00002000300F8040404F800010202020100CC
:104BE00004FC24241800020302000000F88484045A
:104BF000F80001020207050004FC24649800020387
:104C000002000302182424448C0003020202010063
:104C10000C04FC040C0000020302000004FC000071
:104C2000FC04000102020100047C80E01C0400007E
:104C3000030000001CE03CE01C0000030003000037
:104C4000049C609C0400020300030200041CE01C9E
:104C500004000002030200000C84641C0400020330
:104C6000020203000000FE0202000000070404002C
:104C7000000E30C00000000000010200000202FE31
:104C8000000000040407000000040204000000000B
:104C900000000000000000000000080808080808E4
:104CA0000000020000000000000000000040A0A082
:104CB000C00000010202030204FC2020C000000327
:104CC0000202010000C02020600000010202020078
:104CD00000C02024FC0000010202030200C0A0A0CA
:104CE000C0000001020202000020F8242404000297
:104CF000030202000040A0A0602000070A0A0A0484
:104D000004FC2020C0000203020003020020E40093
:104D10000000000203020000000020E40000080878
:104D20000807000004FC80E02020020302000302C8
:104D30000404FC000000020203020200E020E02064
:104D4000C00003000300030020E02020C000020395
:104D50000200030200C02020C00000010202010086
:104D600020E02020C000080F0A02010000C020201F
:104D7000E0000001020A0F0820E0402020000203AA
:104D8000020000000060A0A0200000020202030058
:104D90000020F820000000000102020020E00020B6
:104DA000E00000010202030220E0208060200000F9
:104DB000030100006080E080600000030003000049
:104DC00020608060200002030003020020E02080B9
:104DD00060200808070100000020A06020000002F9
:104DE00003020200000020DE0200000000070400B1
:104DF000000000FF00000000000F00000002DE20A5
:104E00000000000407000000020102040402000088
:104E10000000000000000000000000000000000092
:104E200000000000000000F8000000000000003357
:104E30003000000000100C06100C060000000000FE
:104E40000000000040C07840C0784000043F0404E7
:104E50003F040400007088FC08300000001820FFA8
:104E6000211E0000F008F000E018000000211C03E3
:104E70001E211E0000F00888700000001E2123245F
:104E80001927211010160E0000000000000000007D
:104E900000000000000000E018040200000000070D
:104EA0001820400000020418E00000000040201814
:104EB00007000000404080F0804040000202010FE7
:104EC00001020200000000F0000000000101011FCB
:104ED00001010100000000000000000080B070002F
:104EE00000000000000000000000000000010101BF
:104EF000010101010000000000000000003030004E
:104F00000000000000000000806018040060180627
:104F10000100000000E010080810E000000F102061
:104F200020100F00001010F8000000000020203FAB
:104F30002020000000700808088870000030282435
:104F400022213000003008888848300000182020D6
:104F500020110E000000C02010F8000000070424FB
:104F6000243F240000F80888880808000019212040
:104F700020110E0000E0108888180000000F11209A
:104F800020110E0000380808C83808000000003F53
:104F9000000000000070880808887000001C2221B2
:104FA00021221C0000E010080810E000000031225F
:104FB00022110F00000000C0C000000000000030FF
:104FC0003000000000000080000000000000806051
:104FD00000000000000080402010080000010204D2
:104FE00008102000404040404040400004040404B9
:104FF0000404040000081020408000000020100875
:1050000004020100007048080808F00000000030A9
:1050100036010000C030C828E810E0000718272437
:1050200023140B000000C038E0000000203C2302E5
:105030000227382008F8888888700000203F202048
:1050400020110E00C030080808083800071820207A
:105050002010080008F808080810E000203F202071
:1050600020100F0008F88888E8081000203F202052
:105070002320180008F88888E8081000203F200046
:1050800003000000C030080808380000071820207E
:10509000221E020008F808000008F808203F21013D
:1050A00001213F20000808F8080800000020203FE8
:1050B0002020000000000808F8080800C080808058
:1050C0007F00000008F888C028180800203F200151
:1050D0002638200008F8080000000000203F2020AB
:1050E0002020300008F8F800F8F80800203F003FC2
:1050F000003F200008F830C00008F808203F2000DA
:1051000007183F00E01008080810E0000F102020EA
:1051100020100F0008F808080808F000203F2101BF
:1051200001010000E01008080810E0000F18242416
:1051300038504F0008F8888888887000203F200089
:10514000030C30200070880808083800003820213F
:1051500021221C00180808F8080818000000203F49
:105160002000000008F808000008F808001F2020B0
:1051700020201F000878880000C838080000073881
:105180000E010000F80800F80008F800033C0700D2
:10519000073C0300081868808068180820302C033A
:1051A000032C30200838C800C83808000000203F11
:1051B0002000000010080808C83808002038262100
:1051C00020201800000000FE020202000000007F04
:1051D00040404000000C30C0000000000000000112
:1051E0000638C00000020202FE00000000404040FD
:1051F0007F00000000000402020204000000000022
:10520000000000000000000000000000808080809E
:105210008080808000020204000000000000000086
:10522000000000000000808080800000001924221F
:1052300022223F2008F8008080000000003F11205B
:1052400020110E000000008080800000000E112060
:1052500020201100000000808088F800000E11203E
:1052600020103F200000808080800000001F22224C
:1052700022221300008080F0888888180020203FB8
:10528000202000000000808080808000006B9494CB
:105290009493600008F8008080800000203F210087
:1052A00000203F2000809898000000000020203F50
:1052B00020200000000000809898000000C080803E
:1052C000807F000008F8000080808000203F2402DA
:1052D0002D302000000808F8000000000020203FCA
:1052E000202000008080808080808000203F20007F
:1052F0003F20003F8080008080800000203F210010
:1053000000203F200000808080800000001F2020BF
:1053100020201F00808000808000000080FFA120EE
:1053200020110E000000008080808000000E1120FF
:1053300020A0FF80808080008080800020203F218E
:105340002000010000008080808080000033242441
:1053500024241900008080E0808000000000001FED
:10536000202000008080000000808000001F20209E
:1053700020103F20808080000080808000010E305F
:105380000806010080800080008080800F300C03C0
:105390000C300F0000808000808080000020312EC3
:1053A0000E312000808080000080808080818E709F
:1053B0001806010000808080808080000021302C51
:1053C0002221300000000000807C0202000000006A
:1053D000003F404000000000FF000000000000000F
:1053E000FF0000000002027C800000000040403FFF
:1053F0000000000000060101020204040000000099
:10540000000000000000000000000000000000009C
:10541000000000000000000000000000000000008C
:1054200000000000000000000000000000F0F0F0AC
:10543000000000000000000000017F0100000000EB
:1054400000000000001C1C1C000000000000806028
:10545000301C8C60301C0C000000000000000000BC
:10546000000000000000000000000000000000003C
:10547000000000E00000000000E000000086E69F61
:1054800086868686E69F860000011F0101010101D4
:105490001F010100000080C06020F820E0C0000073
:1054A000000003070C18FF70E18100000000070FE7
:1054B00010107F100F070000806020608000000047
:1054C000E02000000F3020309F70DC371030C0002B
:1054D0000000100E03000718101807000000C0207D
:1054E00020E0C0000000000080E01F38E88703C40F
:1054F0003C040000070F1810100B070D10100800D7
:1055000000808C4C3800000000000000000000000B
:10551000000000000000000000000000000000008B
:105520000000000000000000000080E030080400DF
:105530000000000000FEFF0100000000000000006D
:105540000000030F1820400000040830E080000035
:10555000000000000000000001FFFE00000000004D
:10556000004020180F0300000000000000000000B1
:105570000000C00000000000004266663C18FF18F2
:105580003C666642000000000000030000000000CE
:10559000000000000000800000000000001010105B
:1055A0001010FF1010101010000000000000030089
:1055B00000000000000000000000000000000000EB
:1055C00000000000000000000000000000808C4C83
:1055D0003800000000000000000000000000000093
:1055E000000000000010101010101010101010001B
:1055F00000000000000000000000000000000000AB
:10560000000000000000000000000000000000009A
:105610000000000000001C1C1C0000000000000036
:105620000000000000000000E0380C000000000056
:1056300080701C03000000000060380E01000000B4
:1056400000000000000080C060202060C0800000DA
:1056500000FEFF010000000001FFFE000001070E38
:10566000181010180E0701000000808080C0E000B4
:10567000000000000000000000FFFF00000000002C
:1056800000001010101F1F1010100000008040209C
:1056900020202060C08000000003030080402038EC
:1056A0001F070000001C1A1918181818181F0000EE
:1056B0000080C020202060C08000000000030300A4
:1056C0001010182FE780000000070F10101010189E
:1056D0000F070000000000000000C0E0F000000024
:1056E00000C0B088868180FFFF808000000000003D
:1056F0000010101F1F1010000000E060606060606C
:105700006060000000003F1008080818F0E000008A
:1057100000070B101010101C0F030000000080C0C9
:1057200040202020E0C0000000FCFF2110080808F5
:1057300018F0E0000001070C18101010080F03000B
:105740000000C0E06060606060E060000000030096
:105750000000E0180700000000000000001F1F000C
:10576000000000000080C0602020202060C0800079
:105770000087EF2C1818303068CF830000070F081F
:1057800010101010180F07000000C0C020202020AB
:10579000C0800000001F3F604040402010FFFE001E
:1057A00000000C1C101010080F0300000000000087
:1057B000000000000000000000000000000E0E0EBF
:1057C0000000000000000000001C1C1C0000000085
:1057D00000000000000000000000000000000000C9
:1057E000000C0C0000000000000000000058380011
:1057F00000000000000000000000008040201000B9
:105800000000102844820100000000000000000099
:105810000000010204081000000000000000000069
:105820000000000000848484848484848484840050
:105830000000000000000000000000000000102038
:105840004080000000000000000000000000018215
:1058500044281000000010080402010000000000AD
:1058600000C020201010101030E0C0000003030022
:1058700000F010080C070300000000001C1C1C00B6
:1058800000000000000000C0406020202040C00058
:1058900000FCFF01F00E03C1FE03807F0001070E34
:1058A00008111110110904020000000080E0E0005E
:1058B000000000000000807C4340477FF88000002B
:1058C00010181F1000000000131F1C1020E0E02023
:1058D00020202060C080000000FFFF101010101872
:1058E0002FE78000101F1F1010101010180F070056
:1058F000000080C0402020202060E00000FCFF016C
:1059000000000000000001000001070E1810101038
:105910000804030020E0E02020202040C080000098
:1059200000FFFF000000000001FFFE00101F1F101D
:10593000101018080E07010020E0E0202020202091
:105940002060800000FFFF101010107C000000009D
:10595000101F1F10101010101018060020E0E0207B
:10596000202020206060800000FFFF101010107CBD
:1059700000000100101F1F100000000000000000C8
:10598000000080C06020202040E0000000FCFF01FB
:1059900000004040C0C140400001070E1810101028
:1059A0000F0F000020E0E0200000000020E0E020D9
:1059B00000FFFF101010101010FFFF00101F1F102D
:1059C00000000000101F1F100000202020E0E02039
:1059D000202000000000000000FFFF000000000089
:1059E00000001010101F1F10101000000000000019
:1059F000202020E0E020202000000000000000FF28
:105A0000FF0000000060E0808080C07F3F00000059
:105A100020E0E020000020A06020200000FFFF30F8
:105A2000187CE3C000000000101F1F1000000113CD
:105A30001F1C181020E0E020000000000000000003
:105A400000FFFF000000000000000000101F1F10FA
:105A5000101010101018060020E0E0E00000000018
:105A6000E0E0E02000FF013FFEC0E01E01FFFF007C
:105A7000101F1000031F0300101F1F1020E0E0C0C4
:105A8000000000000020E02000FF0003071C78E079
:105A90008000FF00101F100000000000030F1F0017
:105AA000000080C060202060C080000000FEFF0178
:105AB0000000000000FFFE000001070E1810101883
:105AC0000C07010020E0E0202020202060C08000A2
:105AD00000FFFF2020202020301F0F00101F1F106C
